{
  "_format": "hh-sol-artifact-1",
  "contractName": "StaticCallbackTarget",
  "sourceName": "solidity/StaticCallTester.sol",
  "abi": [
    {
      "inputs": [
        {
          "internalType": "address",
          "name": "_werc20",
          "type": "address"
        }
      ],
      "stateMutability": "nonpayable",
      "type": "constructor"
    },
    {
      "inputs": [],
      "name": "callback",
      "outputs": [
        {
          "internalType": "string",
          "name": "",
          "type": "string"
        }
      ],
      "stateMutability": "nonpayable",
      "type": "function"
    },
    {
      "inputs": [
        {
          "internalType": "address",
          "name": "target",
          "type": "address"
        },
        {
          "internalType": "uint256",
          "name": "amount",
          "type": "uint256"
        }
      ],
      "name": "setTransferParams",
      "outputs": [],
      "stateMutability": "nonpayable",
      "type": "function"
    },
    {
      "inputs": [],
      "name": "transferAmount",
      "outputs": [
        {
          "internalType": "uint256",
          "name": "",
          "type": "uint256"
        }
      ],
      "stateMutability": "view",
      "type": "function"
    },
    {
      "inputs": [],
      "name": "transferTarget",
      "outputs": [
        {
          "internalType": "address",
          "name": "",
          "type": "address"
        }
      ],
      "stateMutability": "view",
      "type": "function"
    },
    {
      "inputs": [],
      "name": "werc20",
      "outputs": [
        {
          "internalType": "contract IWERC20",
          "name": "",
          "type": "address"
        }
      ],
      "stateMutability": "view",
      "type": "function"
    }
  ],
  "bytecode": "0x60803461007457601f61039d38819003918201601f19168301916001600160401b038311848410176100795780849260209460405283398101031261007457516001600160a01b0381169081900361007457600080546001600160a01b03191691909117905560405161030d90816100908239f35b600080fd5b634e487b7160e01b600052604160045260246000fdfe604060808152600436101561001357600080fd5b600090813560e01c8063083b27321461010b5780633d165d42146100c657806341ae9b581461009e578063504d27fd1461008057635741229c1461005657600080fd5b3461007c578160031936011261007c57905490516001600160a01b039091168152602090f35b5080fd5b503461007c578160031936011261007c576020906002549051908152f35b503461007c578160031936011261007c5760015490516001600160a01b039091168152602090f35b503461007c57366003190112610108576004356001600160a01b0381169081900361007c57600180546001600160a01b03191691909117905560243560025580f35b80fd5b503461007c578160031936011261007c5761012461019f565b91815192839160208084528251928382860152825b84811061015757505050828201840152601f01601f19168101030190f35b8181018301518882018801528795508201610139565b6040810190811067ffffffffffffffff82111761018957604052565b634e487b7160e01b600052604160045260246000fd5b600080546001546002546040805163a9059cbb60e01b602082019081526001600160a01b03948516602483015260448083019490945292815290949367ffffffffffffffff9316919060808101848111828210176102c357865251849283929083905af1913d156102bc573d8281116102a857845192601f8201601f19908116603f0116840190811184821017610294578552825260203d92013e5b61026857516102498161016d565b600f81526e1514905394d1915497d19052531151608a1b602082015290565b516102728161016d565b60128152711514905394d1915497d4d550d0d15151115160721b602082015290565b634e487b7160e01b83526041600452602483fd5b634e487b7160e01b82526041600452602482fd5b505061023b565b634e487b7160e01b86526041600452602486fdfea2646970667358221220790024c0a8cf9f5b5ccb5cbb4fb06d5aeb9edf3d3c4a5eee7f3a15ff456d6fbf64736f6c63430008140033",
  "linkReferences": {},
  "deployedLinkReferences": {}
}