{
  "_format": "hh-sol-artifact-1",
  "contractName": "ViewCaller",
  "sourceName": "solidity/StaticCallTester.sol",
  "abi": [
    {
      "inputs": [
        {
          "internalType": "address",
          "name": "target",
          "type": "address"
        }
      ],
      "name": "callViewAndReturn",
      "outputs": [
        {
          "internalType": "string",
          "name": "",
          "type": "string"
        }
      ],
      "stateMutability": "nonpayable",
      "type": "function"
    },
    {
      "inputs": [
        {
          "internalType": "address",
          "name": "target",
          "type": "address"
        }
      ],
      "name": "callViewFunction",
      "outputs": [
        {
          "internalType": "string",
          "name": "",
          "type": "string"
        }
      ],
      "stateMutability": "view",
      "type": "function"
    }
  ],
  "bytecode": "0x60808060405234610016576101f7908161001c8239f35b600080fdfe6080604052600436101561001257600080fd5b60003560e01c80637539f146146100325763fc61abd91461003257600080fd5b61005a565b60005b83811061004a5750506000910152565b818101518382015260200161003a565b3461018457602080600319360112610184576004356001600160a01b0381169190829003610184576040908151809363041d939960e11b825281600460009384935afa9081156101795780916100db575b506100cd93508251938285938452825192818480938701528686019101610037565b601f01601f19168101030190f35b90503d8082863e6100ec8186610189565b840190828583031261015e57845167ffffffffffffffff9586821161017557019082601f8301121561015e57815195861161016157845192610137601f8801601f1916860185610189565b86845284878401011161015e57506100cd9461015891848085019101610037565b386100ab565b80fd5b634e487b7160e01b81526041600452602490fd5b8280fd5b8351903d90823e3d90fd5b600080fd5b90601f8019910116810190811067ffffffffffffffff8211176101ab57604052565b634e487b7160e01b600052604160045260246000fdfea2646970667358221220b1147e751527d97b2fe436736723e36b7fa65857a2d0fc889252a1aa2e2b843264736f6c63430008140033",
  "linkReferences": {},
  "deployedLinkReferences": {}
}